:020000040800F2
:1000000000500020B91200084512000849120008EB
:100010004D1200085112000855120008000000009F
:10002000000000000000000000000000591200085D
:100030005D1200080000000061120008651200084F
:100040000113000801130008011300080113000840
:100050000113000801130008011300080113000830
:100060000113000801130008011300080113000820
:100070000113000801130008011300080113000810
:100080000113000801130008011300080113000800
:1000900001130008011300080113000801130008F0
:1000A00001130008011300080113000801130008E0
:1000B00001130008011300080113000801130008D0
:1000C00001130008011300080113000801130008C0
:1000D00001130008011300080113000801130008B0
:1000E00001130008011300080113000800000000BC
:1000F0000000000000000000000000000000000000
:0C01000000000000000000005FF808F1A3
:10010C0010B5054C237833B9044B13B10448AFF345
:10011C0000800123237010BDDC01002000000000D2
:10012C00902C000808B5034B1BB103490348AFF3EF
:10013C00008008BD00000000E0010020902C0008A9
:10014C00034613F8012B002AFBD1181A013870470B
:10015C004FF47A7370B50D4D0D4A29781268B3FBC4
:10016C00F1F30646B2FBF3F000F09AF808B90F2E43
:10017C0001D9012070BD0446024631464FF0FF30D4
:10018C0000F058F86E60204670BD00BF00000020E3
:10019C0008000020074A08B51368032043F0100339
:1001AC00136000F035F80020FFF7D2FF00F0E6FFF7
:1001BC00002008BD00200240034A044B11681B7844
:1001CC000B441360704700BF0402002000000020A5
:1001DC00014B1868704700BF0402002038B5044674
:1001EC00FFF7F6FF631C054602D0044B1B781C443A
:1001FC00FFF7EEFF401BA042FAD338BD00000020F1
:10020C00024B1868C0F30B00704700BF002004E0DD
:10021C004FF6FF01064A0002D36800F4E0600B4081
:10022C0043F0BF6343F400330343D360704700BF14
:10023C0000ED00E0184B30B4DB68C3F30223C3F1CC
:10024C000705042D03F1040428BF0425062C19D935
:10025C004FF0FF34033B9C4022EA04044FF0FF3282
:10026C00AA4021EA020101FA03F2224312010028FA
:10027C00D2B20ADB00F1604000F5614080F8002347
:10028C0030BC704700242346E8E7044B00F00F0015
:10029C0003441A7630BC704700ED00E0FCEC00E043
:1002AC000138B0F1807F0DD230B4F0250022072147
:1002BC00054B064C586084F82350104630BC9A60AD
:1002CC00196070470120704710E000E000ED00E07D
:1002DC002DE9F04F4FF0000883B04446DFF8C0C161
:1002EC00694EDFF8C0E102E00134102C78D0012314
:1002FC000A68A3401A409342F6D14D68122D00F0C3
:10030C009C807ED8022D00F0948074D9032D00F0CF
:10031C008D80112D02D1CB6803F10408FF2A62D81D
:10032C0082460368A5004FF00F0909FA05FB23EA82
:10033C000B0308FA05F52B43CAF80030D1F804A0DA
:10034C001AF0805FD0D0514F24F00305BB6905F142
:10035C00804543F00103BB61BB6905F5803503F0B3
:10036C000103019304F0030B019B4FEA8B0BAB6869
:10037C0009FA0BF9604523EA09030FD0704560D0E8
:10038C00434FB84278D0434FB8420CBF4FF00309EB
:10039C004FF0040909FA0BFB43EA0B03AB6033681B
:1003AC001AF4803F14BF13439343336073681AF4F9
:1003BC00003F14BF134393437360B3681AF4801F58
:1003CC0014BF13439343B360F3681AF4001F04F192
:1003DC00010414BF1A4323EA0202102CF26086D1E6
:1003EC0003B0BDE8F08F04F18045083D4368AD00D3
:1003FC0000F1040A97E7A5B1012D8FD1D1F80C803B
:10040C008CE7254FBD420CD029D9244FBD4208D0D2
:10041C0007F58037BD4204D0DFF88C904D457FF452
:10042C007DAF8D68A5B94FF0040877E74FF0000851
:10043C0074E7CB6803F1080870E7CB6803F10C088C
:10044C006CE74FF0010909FA0BFB43EA0B03A5E734
:10045C00012D0CBF036143614FF008085EE7DFF824
:10046C004C904D45DDD009F580394D457FF456AFA4
:10047C008D68002DD7D0EBE74FF0020909FA0BFB82
:10048C0043EA0B038AE700BF00040140001002405E
:10049C000010014000140140000021100000311038
:1004AC0000080140000C0140000022100000111057
:1004BC0002B9090401617047C3685940C1607047B3
:1004CC002DE9F041036882B0DD07044630D5AB4915
:1004DC004A6802F00C02042A00F0DA804A6802F042
:1004EC000C02082A00F0D0806368B3F5803F00F05E
:1004FC000F81002B00F02781B3F5A02F00F0B58100
:10050C009E4B1A6822F480321A601A6822F48022F8
:10051C001A60FFF75DFE994D064605E0FFF758FEA1
:10052C00801B642800F20B812B689A03F6D5236894
:10053C009F0728D5914A516811F00C0F00F0B68036
:10054C00516801F00C01082900F0AC802369002BE4
:10055C0000F0418101228A4B884D1A60FFF738FE6A
:10056C00064605E0FFF734FE801B022800F2E78008
:10057C002B689807F6D52B68626923F0F80343EAD9
:10058C00C2032B6023681A0722D5A369002B00F045
:10059C00988001227B4B794D1A60FFF719FE0646B5
:1005AC0005E0FFF715FE801B022800F2C8806B6A7D
:1005BC009B07F6D5744B754A1B68A2FB03235B0A99
:1005CC00019300BF019B5A1E0192002BF9D12368A5
:1005DC005D0739D5694BDA69D00040F1828000257E
:1005EC006B4B1A68D10540F19980E368012B0FD051
:1005FC00002B00F0D180052B604B1A6A00F0FC80B8
:10060C0022F001021A621A6A22F004021A6204E051
:10061C005A4A136A43F001031362FFF7D9FD574E90
:10062C00804641F2883706E0FFF7D2FDA0EB0800C8
:10063C00B84200F28480336A9B07F5D525B14F4A46
:10064C00D36923F08053D361E269CAB14B4D696819
:10065C0001F00C01082930D0022A4FF000014D4A5C
:10066C0000F0D2801160FFF7B3FD2C46054604E084
:10067C00FFF7AEFD401B022861D823689B01F7D41D
:10068C00002002B0BDE8F0814A68D0037FF52CAFA2
:10069C003A4A126891037FF54BAF6268002A7FF4E7
:1006AC0047AF0AE05268D6033FF550AF334A1268A1
:1006BC00950721D52269012A1ED0012002B0BDE880
:1006CC00F081304A2D4D1360FFF782FD064604E0A1
:1006DC00FFF77EFD801B022831D86B6A9F07F7D489
:1006EC0075E7DA69012542F08052DA61DB6903F0C3
:1006FC0080530093009B73E7204960690A6822F0DD
:10070C00F80242EAC0020A601A077FF561AF3CE7C3
:10071C001A4A136843F480331360FAE61A681E46CB
:10072C0042F480721A60FFF753FD07463368DA050E
:10073C003FF55BAFFFF74CFDC01B6428F6D90320D7
:10074C0002B0BDE8F08103F1804303F504331A686D
:10075C001D4622F480321A601A6822F480221A6034
:10076C00FFF736FD064604E0FFF732FD801B6428D8
:10077C00E5D82B689B03F7D4D9E600BF00100240E4
:10078C00000042428004424208000020D34D621017
:10079C00007000406000424203F1804303F50433D3
:1007AC001A6A1E4622F001021A621A6A41F288384D
:1007BC0022F004021A62FFF70BFD074604E0FFF774
:1007CC0007FDC01B4045BAD8336A9807F7D4002DF3
:1007DC003FF43AAF33E72B4A2B4D1360FFF7F8FC8D
:1007EC00064604E0FFF7F4FC801B0228A7D82B6810
:1007FC009907F7D42368C6E642F004021A621A6A13
:10080C0042F001021A6208E71160FFF7E1FC0646AC
:10081C0004E0FFF7DDFC801B022890D82B689901BF
:10082C00F7D4226AB2F5803F05D16B68A16823F436
:10083C0000330B436B600125134B606A596802430C
:10084C0021F4741111480A435A6005601C46FFF7E5
:10085C00BFFC054605E0FFF7BBFC401B02283FF63A
:10086C006EAF23689A01F6D50AE703F18043A3F52E
:10087C003C331A6842F480221A601A6842F48032BF
:10088C001A6046E6000042420010024060004242FC
:10089C0040F2012286B0154B0DF1180CADF8042076
:1008AC000FCB0CE90F0012494B6803F00C02082A1D
:1008BC0002D0104806B07047C3F383426244DB0396
:1008CC0012F8102C04D40C4800FB02F006B0704750
:1008DC004B680848C3F3404300FB02F0634413F831
:1008EC00143CB0FBF3F006B0704700BFA82C000816
:1008FC000010024000127A0000093D00544A1368AF
:10090C0003F007038B420BD2136823F007030B434E
:10091C001360136803F007038B4201D0012070476A
:10092C0003682DE9F0419D0714D55C0704D5494CAB
:10093C00626842F4E06262601A0704D5454C626852
:10094C0042F460526260434C8568626822F0F002A7
:10095C002A436260DF0704460E4622D542683D4BAF
:10096C00012A1B686FD0022A6AD0990729D5394D04
:10097C0041F288386B6823F0030313436B60FFF775
:10098C0027FC63680746012B49D0022B05D151E0A7
:10099C00FFF71EFCC01B404558D86B6813F00C0FBA
:1009AC00F6D12B4A136803F00703B3420CD9136832
:1009BC0023F0070333431360136803F00703B342B8
:1009CC0002D00120BDE8F08123685A0706D52149E1
:1009DC00E0684A6822F4E06202434A601B0707D5CC
:1009EC001C4A2169536823F4605343EAC1035360E2
:1009FC00FFF74EFF174B18495B68184AC3F30313F4
:100A0C00CB5C20FA03F300201360FFF7A1FB00205E
:100A1C00BDE8F081FFF7DCFBC01B404516D86B68C6
:100A2C0003F00C03042BF5D1BBE7FFF7D1FBC01B84
:100A3C0040450BD86B6803F00C03082BF5D1B0E7DD
:100A4C00980194D4BDE79D0391D4BAE70320B9E78C
:100A5C000020024000100240B82C000808000020C2
:100A6C00044B05495B68054AC3F30223CB5C106851
:100A7C00D840704700100240C82C00080800002025
:100A8C00044B05495B68054AC3F3C223CB5C106871
:100A9C00D840704700100240C82C00080800002005
:100AAC002DE9F84304460368C0681969A26821F46B
:100ABC00405101431961D968D4E9045021F4B05173
:100ACC002A4321F00C0102430A43DA605A69A069F7
:100ADC004D4922F4407202438B425A6155D0FFF7C4
:100AEC00BFFF636800EB800000EB80009B00B0FB55
:100AFC00F3F3464F4FF06408A7FB03235B091D017A
:100B0C00FFF7AEFF666800EB800000EB8000B600DC
:100B1C00B0FBF6F6FFF7A4FF626800EB80009300D1
:100B2C0000EB8000B0FBF3F3A7FB03235B0908FB8E
:100B3C0013631B013233A7FB03235B0903F0F0069D
:100B4C00FFF78EFF626800EB800000EB80009300E3
:100B5C00B0FBF3F9FFF784FF626800EB80009300B1
:100B6C0000EB8000B0FBF3F3A7FB03235B0908FB4E
:100B7C0013931B013233A7FB0323C3F343133343F8
:100B8C0022682B449360BDE8F883FFF779FF636814
:100B9C0000EB800000EB80009B00B0FBF3F31B4FDD
:100BAC004FF06408A7FB03235B091D01FFF768FFE7
:100BBC00666800EB800000EB8000B600B0FBF6F638
:100BCC00FFF75EFF626800EB8000930000EB800093
:100BDC00B0FBF3F3A7FB03235B0908FB13631B01B7
:100BEC003233A7FB03235B0903F0F006FFF748FF42
:100BFC00626800EB8000930000EB8000B0FBF3F91F
:100C0C00FFF73EFFA8E700BF003801401F85EB51FE
:100C1C002DE9F04107460E4690461D463C6801E022
:100C2C006B1C06D1206836EA0003F9D10020BDE820
:100C3C00F08135B1FFF7CCFAA0EB08008542EDD27C
:100C4C003C6820220021E368032023F4D073E36086
:100C5C00636923F00103636187F8392087F8381042
:100C6C0087F83A20E3E700BF60B338B590F8393025
:100C7C00044603F0FF0203B32423226884F83930BE
:100C8C00D368204623F40053D360FFF709FF0025F7
:100C9C002021236828461A6922F490421A615A6965
:100CAC0022F02A025A61DA6842F40052DA60E563F3
:100CBC0084F8391084F83A1038BD80F8382000F0E8
:100CCC007FFAD9E701207047F0B5044690F8390057
:100CDC0083B0202840D10D46002940D00192002A33
:100CEC003DD01E4694F83830012B35D00020012120
:100CFC002123E06384F8381084F83930FFF768FA60
:100D0C000746019AA284E284E38C9BB2BBB1E38CCC
:100D1C00A268013B9BB2B2F5805FE3843A4633464E
:100D2C004FF0800120461DD0FFF772FF40BB2368B7
:100D3C002A7801355A60E38C9BB2002BE7D13346FD
:100D4C003A4640212046FFF763FFC8B9202384F8B8
:100D5C00380084F8393000E0022003B0F0BD0120E7
:100D6C0003B0F0BDFFF754FF50B92B8821682269FE
:100D7C00C3F308034B600AB90235C5E70135C3E775
:100D8C000320EAE7F0B5044690F83A0083B0202837
:100D9C003CD10D4600293CD00192002A39D01E4688
:100DAC0094F83830012B31D0002001212223E0634C
:100DBC0084F8381084F83A30FFF70AFA0746019A9B
:100DCC00A285E285E08D80B2D0B1E38DA268013BB3
:100DDC009BB2B2F5805FE3853A4633464FF0200173
:100DEC00204619D0FFF714FF70BB236921686A1CD9
:100DFC00F3B94B682B70E08D154680B20028E4D116
:100E0C00202384F8380084F83A3000E0022003B044
:100E1C00F0BD012003B0F0BDFFF7FAFEA0B92369C5
:100E2C0063B923685B68C3F3080325F8023BC9E781
:100E3C004B6803F07F032B701546C3E723685B6890
:100E4C00DBB225F8013BBDE70320E0E710B582B02B
:100E5C000C464FF6FF730DF1070101220A48FFF70C
:100E6C0091FF10B1002002B010BD0DF107014FF63B
:100E7C00FF7301220448FFF727FF01209DF807307C
:100E8C00237002B010BD00BF0802002010B54FF651
:100E9C00FF731446044892B2FFF716FF00280CBFEC
:100EAC002046002010BD00BF0802002070B501468E
:100EBC00234800F04DFA234A234B11682348A3FB27
:100ECC000131890C00F044FA214800F0B5FA214BAD
:100EDC002148198800F03CFA1D4800F0ADFAFFF7E4
:100EEC008FF901461D4800F033FA194800F0A4FAB6
:100EFC001B4B1C4A1C491B68126809681B4800F0F4
:100F0C0027FA134800F098FA194800F021FA002447
:100F1C00184D194E24F0020304F10052042BA2F5D3
:100F2C0000620CBF304628461178013400F010FAEC
:100F3C00102CEFD10648BDE8704000F07DBA00BF20
:100F4C00DC2C00080800002083DE1B43FC2C00086E
:100F5C00142D0008E0F7FF1F182D0008302D000895
:100F6C00F0F7FF1FECF7FF1FE8F7FF1F442D0008F9
:100F7C00642D00087C2D0008742D000830B500236A
:100F8C0001214FF4803202244FF4E01591B006A8F1
:100F9C00089301930993CDE90B33CDE90233CDE9E5
:100FAC00043306910A910792CDE90D420F95FFF794
:100FBC0087FA00B1FEE703460F254FF4806201A8C3
:100FCC002146CDE90243059301950492FFF796FC67
:100FDC0000B1FEE711B030BD30B5002489B0FFF789
:100FEC00D9F8FFF7CBFFCDE90444CDE90644234BF8
:100FFC00224699694FF4005541F0100199619869A6
:10100C004FF4005100F0100001900198986940F0E5
:10101C0020009861986900F020000290029898696D
:10102C0040F0040098619B69154803F00403039396
:10103C00039BFFF73DFA0122022304A91048CDE9D6
:10104C00045207930694FFF743F94FF416510C2200
:10105C000C4B0D4D1846C3E902441C61C3E9064410
:10106C00C3E900515A61FFF7FFFD00B1FEE70446EA
:10107C0000F00CF8204609B030BD00BF0010024053
:10108C00001001400802002000380140F0B585B086
:10109C00002502958DF80C5001AA334902A800F0E6
:1010AC00D3F93248FFF702FF314800F0C5F94EE0A2
:1010BC006F1C29462F4800F04BF900240F2C09DC3B
:1010CC004FF400512C48FFF7F7F96420FFF786F82E
:1010DC000134F3E7AE1C3946264800F039F90024F8
:1010EC00072C09DC4FF400512348FFF7E5F9C82021
:1010FC00FFF774F80134F3E7EF1C31461D4800F09C
:10110C0027F90024032C0ADC4FF400511A48FFF78E
:10111C00D3F94FF4C870FFF761F80134F2E72E1DD4
:10112C003946144800F014F90024012C0ADC4FF461
:10113C0000511148FFF7C0F94FF44870FFF74EF813
:10114C000134F2E7053531460A4800F001F9002474
:10115C001F2CADDC4FF400510748FFF7ADF93220DE
:10116C00FFF73CF80134F3E7842D0008882D0008C4
:10117C00A42D0008C82D0008001001400E4B82B0B1
:10118C009A690E4942F001029A619A6902F00102D1
:10119C000092009ADA6942F08052DA61DB6903F05E
:1011AC0080530193019B4B6823F0E06343F0007381
:1011BC004B6002B0704700BF0010024000000140BD
:1011CC0070B5002402681A4B86B09A42CDE90244ED
:1011DC00CDE9044401D006B070BD4FF40071022675
:1011EC00032503F558439A69124842F480429A61E8
:1011FC009A6902F480420092009A9A6942F00402C1
:10120C009A619B69029103F00403019302A9019B6B
:10121C0003960595FFF75CF84FF4806302A9054827
:10122C00CDE903440293FFF753F806B070BD00BF3D
:10123C000038014000080140704700BFFEE700BFC6
:10124C00FEE700BFFEE700BFFEE700BF704700BF30
:10125C00704700BF704700BFFEF7AEBF30B44FF40D
:10126C001F054FF000640E4B0E4A19680E4841F0F2
:10127C000101196059680A405A601A6822F0847298
:10128C0022F480321A601A6822F480221A605A689A
:10129C0022F4FE025A609D60846030BC704700BF2F
:1012AC00001002400000FFF800ED00E0002103E018
:1012BC000B4B5B58435004310A480B4B42189A4273
:1012CC00F6D30A4A02E0002342F8043B084B9A4248
:1012DC00F9D3FFF7C3FF00F00FF8FFF77DFE70475F
:1012EC00A82F000800000020DC010020DC010020F9
:1012FC004C020020FEE7000070B500250C4E0D4C92
:10130C00A41BA410A54209D101F0BCFC00250A4E77
:10131C000A4CA41BA410A54205D170BD56F825306B
:10132C0098470135EEE756F8253098470135F2E736
:10133C00A02F0008A02F0008A02F0008A42F000841
:10134C0003460244934200D1704703F8011BF9E7AE
:10135C000FB40A4B13B51C6824B1A36913B920460A
:10136C0000F0B4FA05AB049AA1682046019300F092
:10137C0025FE02B0BDE8104004B070470C00002000
:10138C0070B50E46054618B183690BB900F09EFA8C
:10139C00AB69AC6813B9284600F098FA234B9C4211
:1013AC0017D16C68A3891B071DD52369DBB1013EDE
:1013BC00A36816F8011F013BA360E9B9002B2EDAD4
:1013CC0022460A21284600F0AFF8013011D00A203D
:1013DC0011E0174B9C4201D1AC68E3E7154B9C42E2
:1013EC0008BFEC68DEE72146284600F001F900282A
:1013FC00DDD04FF0FF3070BD002B04DAA2699A42A9
:10140C0006DC0A2904D023685A1C22601970CFE725
:10141C002246284600F088F80130C9D1E9E70A20B5
:10142C0023685A1C22601870E5E700BF042E0008E0
:10143C00242E0008E42D0008024B01461868FFF723
:10144C009FBF00BF0C0000200EB44FF4017230B5EA
:10145C009CB01FAC54F8045BADF8142002900690BD
:10146C00FEF76EFE0B4B03900B9300230F9314931C
:10147C004FF6FF7307900848ADF816302A462346FE
:10148C0002A90068019400F021FC1CB0BDE83040BA
:10149C0003B07047CB1400080C00002010B50C46AC
:1014AC00B1F90E1001F080F90028ABBF636DA38970
:1014BC001B1823F48053ACBF6365A38110BD0020BF
:1014CC0070472DE9F0411F468B890546DB050C461C
:1014DC00164605D502230022B1F90E1000F080FA51
:1014EC00A389324623F48053A381B4F90E103B46F2
:1014FC002846BDE8F04100F069B810B50C46B1F9CA
:10150C000E1000F06DFA431CA38915BF606523F41F
:10151C00805343F48053A38118BFA38110BDB1F94C
:10152C000E1000F0D3B80000F8B50E461446054670
:10153C0018B183690BB900F0C9F9214B9C422AD12F
:10154C006C68A369A360A3891A072ED5236963B3BA
:10155C0023692068F6B2C01A63693746834204DCFB
:10156C002146284600F048F928BBA3680130013B0E
:10157C00A36023685A1C22601E706369834204D0E6
:10158C00A389DB0719D50A2E17D12146284600F06E
:10159C0033F990B10FE00B4B9C4201D1AC68D0E712
:1015AC00094B9C4208BFEC68CBE72146284600F06B
:1015BC001FF80028CCD04FF0FF373846F8BD00BFDD
:1015CC00042E0008242E0008E42D000838B505462A
:1015DC00084611460022054C22601A46FFF756FCBD
:1015EC00431C02D1236803B12B6038BD4802002094
:1015FC00324B70B51D6806460C4625B1AB6913B964
:10160C00284600F063F92E4B9C420FD16C68B4F95C
:10161C000C309AB215072CD4D00611D409223260A2
:10162C0043F04003A3814FF0FF303EE0254B9C423A
:10163C0001D1AC68EBE7244B9C4208BFEC68E6E7B1
:10164C00510712D5616B41B104F14403994202D0A8
:10165C00304600F03BFA00236363A38923F0240394
:10166C00A3810023636023692360A38943F00803EB
:10167C00A38123694BB9A38903F42073B3F5007FCD
:10168C0003D02146304600F0E1F9A28912F00103A3
:10169C000CD00023A36063695B42A361236953B937
:1016AC00B4F90C3013F08000BAD170BD920758BF5A
:1016BC006369A360F2E70020F7E700BF0C0000208D
:1016CC00042E0008242E0008E42D000838B5002351
:1016DC00054C05460846236001F0A6FA431C02D1CE
:1016EC00236803B12B6038BD480200208A892DE99C
:1016FC00F041054610070C4658D44B68002B05DC0E
:10170C000B6C002B02DC0020BDE8F081E66A002E99
:10171C00F9D0002312F480522F68216A2B6032D04A
:10172C00606DA3895A0705D56368C01A636B0BB14A
:10173C00236CC01A00230246E66A216A2846B04789
:10174C00431CA38906D129681D2948D8294ACA40B7
:10175C00D60744D5002262602269D904226004D5E0
:10176C00421C01D12B6803B96065616B2F600029A5
:10177C00C9D004F14403994202D0284600F0A6F9DE
:10178C0000206063C0E701232846B047411CC8D144
:10179C002B68002BC5D01D2B01D0162B01D12F602F
:1017AC00B1E7A38943F04003A381ADE70F69002F94
:1017BC00A9D0930718BF00230E6808BF4B69A6EB8E
:1017CC0007080F608B60B8F1000F9CDD43463A466A
:1017DC00216A2846A66AB047002806DCA38943F094
:1017EC004003A3814FF0FF308EE70744A8EB0008BD
:1017FC00E9E700BF0100402038B50B6905460C46EF
:10180C00DBB118B183690BB900F060F80C4B9C424A
:10181C0009D16C68B4F90C307BB121462846BDE87F
:10182C003840FFF763BF074B9C4201D1AC68F1E72E
:10183C00054B9C4208BFEC68ECE7002038BD00BFAC
:10184C00042E0008242E0008E42D0008002310B5F7
:10185C000446C0E90033836081814366C281C0E9DC
:10186C0004338361194608225C30FFF769FD054B90
:10187C0024626362044BA362044BE362044B236354
:10188C0010BD00BFA9140008CF14000807150008EC
:10189C002B150008014900F085B800BF0518000899
:1018AC0070B568254A1E55430E4605F1740100F0CB
:1018BC0059F9044640B10021C0E900160C30A06073
:1018CC0005F16802FFF73CFD204670BD836910B539
:1018DC00044633BBC0E912330365124B124A1B6832
:1018EC008262984204BF0123836100F01FF860609C
:1018FC00204600F01BF8A060204600F017F80022EC
:10190C00E06004216068FFF7A1FF01220921A068B3
:10191C00FFF79CFF02221221E068FFF797FF0123DB
:10192C00A36110BDE02D0008A1180008F8B51B4BF1
:10193C0007461E68B36913B93046FFF7C7FF483630
:10194C00D6E90134013B03D5336833B13668F7E788
:10195C00B4F90C506DB16834F4E704213846FFF744
:10196C009FFF30600028F1D10C2304463B602046D9
:10197C00F8BD0B4B6566C4E90055A560C4E9033599
:10198C00C4E905550822294604F15C00FFF7D8FC90
:10199C00C4E90D55C4E91255E9E700BFE02D000874
:1019AC000100FFFF2DE9F84380468946002600F12F
:1019BC00480414B93046BDE8F883D4E90175013FF9
:1019CC0001D52468F5E7AB89012B07D9B5F90E30A1
:1019DC00013303D029464046C84706436835EEE735
:1019EC0038B50546084611460022054C22601A46B9
:1019FC0001F032F9431C02D1236803B12B6038BDCE
:101A0C004802002070B50E46B1F90E1096B00029B0
:101A1C0014461D4607DA00232B60B3891A0610D42E
:101A2C004FF480630EE06A4601F062F80028F2DBA6
:101A3C00019A02F47042A2F500535A425A412A60AC
:101A4C00EEE740230020236016B070BD8B8973B580
:101A5C009D0706460C4607D504F147032360236116
:101A6C000123636102B070BD01AB6A46FFF7CAFF88
:101A7C0000990546304600F075F848B9B4F90C30B9
:101A8C009A05EFD423F0030343F00203A381E3E7A9
:101A9C000D4BB362A389206043F08003A381009BAC
:101AAC0020616361019B5BB1B4F90E10304601F00B
:101ABC0031F828B1A38923F0030343F00103A38178
:101ACC00A3891D43A581CDE7A118000838B50546AB
:101ADC00002943D051F8043C0C1F002BB8BFE4186C
:101AEC0001F065F81E4A1368104633B96360146040
:101AFC002846BDE8384001F05BB8A3420BD92168F9
:101B0C006218934201BF1A685B68521822606360C6
:101B1C000460EDE713465A680AB1A242FAD9196873
:101B2C005818A0420BD12068014458188242196001
:101B3C00DED110685268014419605A60D8E702D9A6
:101B4C000C232B60D4E7206821188A4201BF11684E
:101B5C0052680918216062605C60C9E738BD00BF3B
:101B6C00F801002070B5CD1C25F0030508350C2DAF
:101B7C0038BF0C25002D064601DBA94203D90C23E6
:101B8C003360002070BD01F012F8214A1468214620
:101B9C0091B9204C23681BB9304600F017FE206029
:101BAC002946304600F012FE431C24D10C2330464B
:101BBC00336000F0FDFFE4E70B685B1B18D40B2BC4
:101BCC000FD90B60CC18CD50304600F0F1FF04F16A
:101BDC000B00231D20F00700C31AD3D05A42E25049
:101BEC00D0E74B688C4216BF636013600C46EBE782
:101BFC000C464968CCE7C41C24F00304A04205D071
:101C0C00211A304600F0E2FD0130CFD02560DBE731
:101C1C00F8010020FC01002038B54B1C144603D100
:101C2C004FF0FF35284638BD9389CDB223F0200301
:101C3C009381636B52688BB1A36B934208DD23686D
:101C4C005A1E226003F8015C636801336360E9E7A4
:101C5C00214600F015FF0028F1D0E1E72169236847
:101C6C0051B1994208D213F8011CA94204D1013B8D
:101C7C00013223606260D5E7C4E90F3204F14403FA
:101C8C0063630323A363234603F8465F23600123A6
:101C9C00DCE710B50C46496B69B104F14403994279
:101CAC0001D0FFF713FF0020236C6063636013B156
:101CBC00E36B236010BD23694FF0FF3023600023DA
:101CCC006360A38943F02003A381F3E72DE9F04F70
:101CDC000C460021064692460A27ADF5237D449119
:101CEC0045919E490DF10408A0919D49DFF874922D
:101CFC00CDF81881A19100939AF80030002B00F0D8
:101D0C002A81554600F01AFF15F801BB5844437858
:101D1C0013F008031CD06368002B12DD00F00EFFDB
:101D2C0023681A7810444278120701D4AA46E3E7D4
:101D3C00459A01330132459262682360013A626030
:101D4C00E9E7A19B2146304698470028E6D0EDE70D
:101D5C00BBF1250F40F08280439341939AF80130F8
:101D6C002A2B03D110230AF102054193AA4615F838
:101D7C00011BA1F13002092A22D90322794800F073
:101D8C00FDFE38B1A0EB09030120AA469840419B07
:101D9C00184341909AF800300AF10105672B2BD8B3
:101DAC00652B80F09F80472B10D8452B80F09A80B4
:101DBC00002B6CD0252B51D003234297479327E05F
:101DCC00439B07FB0313303B4393CFE75B2B6AD05A
:101DDC000CD8582BF0D1419A42F400724192102247
:101DEC0042926E2B8CBF0423032310E0632B65D02F
:101DFC00642BE1D14297F4E7702B4BD026D86E2B95
:101E0C0062D04CD8692BD7D100234293032347933C
:101E1C006368002B68DD419B590607D400F08EFEE9
:101E2C0023681A7810444278120764D4479B022B1B
:101E3C0073DC6B46224641A9304600F05DFB01285D
:101E4C0000F0898002287FF471AF1DE0752BD1D092
:101E5C00782BC0D0732BAFD10223D8E76368002B4B
:101E6C000CDD23681A785A4575D1013362682360FA
:101E7C00459B013A01336260459357E7A19B21468C
:101E8C00304698470028ECD04498002859D14FF0A0
:101E9C00FF305CE0419A42F0200241929BE708231C
:101EAC0042930423B3E72946404600F09FFC419B34
:101EBC00054643F0400341930123A8E7419B43F0BF
:101ECC00400341930023A2E74198C3063FF52EAF90
:101EDC00009B459A191D00911B68C0074CBF1A80C6
:101EEC001A6023E7052392E7A19B214630469847C9
:101EFC00002890D0C8E7459A013245926268013AB1
:101F0C00002A626002DD0133236087E7A19B214632
:101F1C0030469847002881D0B6E7042B06DC6B4688
:101F2C00224641A9304600F049FB88E70E4B002BB6
:101F3C003FF4FCAE6B46224641A93046AFF300801D
:101F4C007DE7A38913F0400F18BF4FF0FF300DF55C
:101F5C00237DBDE8F08F4498F9E700BF251C0008ED
:101F6C009F1C0008442E000800000000936810B469
:101F7C00013B002B936007DA9469A34201DB0A2929
:101F8C0002D110BCFFF7D0BA1368581C106019703E
:101F9C00084610BC7047F8B506460F461446D518CF
:101FAC00AC4201D1002007E03A4614F8011B304640
:101FBC00FFF7DCFF431CF3D1F8BD00002DE9F04F17
:101FCC000C469DB017461D46064618B183690BB9E1
:101FDC00FFF77CFC7C4B9C4258D17468A389180792
:101FEC005ED52369002B5BD00023099320238DF849
:101FFC00293030234FF0010B8DF82A300395B84669
:10200C00454615F8013B0BB1252B54D1B8EB070A0B
:10201C000BD053463A4621463046FFF7BCFF013001
:10202C0000F0C280099B5344099398F80030002BB0
:10203C0000F0BA8000234FF0FF32CDE90523049362
:10204C0007938DF853301A93A846052218F8011BF4
:10205C005E4800F093FD049B78BBD90644BF202258
:10206C008DF853201A0744BF2B228DF853202A7861
:10207C002A2A2AD0A84600200A25079A414611F898
:10208C00013B303B092B69D960B324E0504B9C4297
:10209C0001D1B468A2E74F4B9C4208BFF4689DE79E
:1020AC0021463046FFF7A4FA00289DD04FF0FF30B0
:1020BC001DB0BDE8F08FA846A2E7444A4546801AF9
:1020CC000BFA00F018430490BEE7039A111D126836
:1020DC000391002A01DB079204E0524243F0020311
:1020EC000792049398F800302E2B0ED198F80130FB
:1020FC002A2B38D1039B08F102081A1D1B68039286
:10210C00002BB8BF4FF0FF330593334D032298F8E3
:10211C000010284600F032FD40B14023401B03FA6A
:10212C0000F0049B08F101080343049398F8001095
:10213C0006222A4808F101078DF8281000F01EFD30
:10214C00002837D0264B1BBB039B073323F0070318
:10215C0008330393099B4B44099350E705FB023268
:10216C00012088468AE700230A25194608F1010850
:10217C000593404610F8012B303A092A03D9002B5D
:10218C00C3D00591C1E705FB012101238046F0E78F
:10219C0003AB00932246134B04A93046AFF30080E7
:1021AC00B0F1FF3F8146D5D1A3895B063FF57EAFE9
:1021BC0009987DE703AB009322460A4B04A93046ED
:1021CC0000F088F8ECE700BF042E0008482E000849
:1021DC00242E0008E42D0008442E00084E2E000882
:1021EC0000000000A31F00082DE9F04791461F4690
:1021FC008A680B6906469342B8BF1346C9F800308B
:10220C0091F843200C46DDF8208012B10133C9F857
:10221C0000302368990642BFD9F800300233C9F860
:10222C000030256815F0060507D104F1190AE3689A
:10223C00D9F800209B1AAB4229DC94F84330226871
:10224C00003318BF012392062ED404F14302394601
:10225C003046C047013021D02368E56803F00603FF
:10226C00042B18BF0025D9F800204FF0000908BF37
:10227C00AD1AA368226908BF25EAE5759342C4BF6D
:10228C009B1AED181A344D451AD1002008E0012391
:10229C00524639463046C047013003D14FF0FF302B
:1022AC00BDE8F0870135C2E73020E11881F8430022
:1022BC005A1C94F845102244023382F84310C4E7A8
:1022CC000123224639463046C0470130E6D009F199
:1022DC000109D8E72DE9F04301F1430C0C46097EC6
:1022EC0085B06E291746064698460C9A00F0B380C6
:1022FC0022D8632936D00AD8002900F0B980582991
:10230C0000F0838004F1420584F8421032E0642925
:10231C0001D06929F6D120681368050603F1040180
:10232C002AD51B681160002B03DA2D225B4284F83E
:10233C0043206F480A2239E0732900F09D8008D8A9
:10234C006F2920D07029DDD1236843F0200323604E
:10235C0003E0752917D07829D4D17823654884F8FF
:10236C00453055E0136804F14205191D1B681160D6
:10237C0084F8423001238CE01B6810F0400F116090
:10238C0018BF1BB2CFE713682568181D106028060C
:10239C0001D51B6802E06806FBD51B886F2914BFAA
:1023AC000A2208225248002184F843106568002D47
:1023BC00A560C0F29580216821F004012160002BFA
:1023CC003DD1002D40F08E806546082A0BD1236844
:1023DC00DB0708D5236962689A42DEBF302305F813
:1023EC00013C05F1FF35ACEB05032361CDF8008012
:1023FC003B4603AA21463046FFF7F6FE01304DD18D
:10240C004FF0FF3005B0BDE8F083394884F8451033
:10241C00136821681D1D1B6815600A060BD5CA07B9
:10242C0044BF41F0200121601BB9226822F0200238
:10243C0022601022B7E74D0648BF9BB2EFE7654616
:10244C00B3FBF2F102FB1133C35C05F8013D0B4603
:10245C000029F5D1B9E713682568181D616910606A
:10246C0028061B6801D5196002E06A06FBD51980A5
:10247C00002365462361B9E71368191D11601D68B7
:10248C0062680021284600F079FB08B1401B6060AF
:10249C0063682361002384F84330A7E723692A4645
:1024AC0039463046C0470130AAD023689B0713D465
:1024BC00E068039B9842B8BF1846A3E701234A463D
:1024CC0039463046C04701309AD00135E368039A4B
:1024DC009B1AAB42F2DCEBE7002504F11909F5E796
:1024EC00002BACD1037804F1420584F842306CE740
:1024FC00552E0008662E00082DE9F04115468A6815
:10250C0080460C4632B98A69002A14BF4FF0FF325C
:10251C0001228A6000262268D1065FBF1A68111D4D
:10252C0019601768A369DBB1012B07D12B686269AD
:10253C001B78D35CA3B9002E31D106E0022B07D057
:10254C00002E2CD1A369012B29D10120BDE8F081EB
:10255C0000F0F4FA2B681B78184443781B07EFD46F
:10256C0023680136DA065EBF2B681B783B702A683D
:10257C006B6802F101022A60A26803F1FF3302F1D9
:10258C00FF326B6058BF0137A26042B1002BC9DC2F
:10259C00D4F880312946404698470028C2D0236899
:1025AC0013F0100305D1E2680132E260A26902B1B6
:1025BC003B70236900201E442661C7E72DE9F04FCC
:1025CC000C469A46744B87B08346164693E8070030
:1025DC0003ABA76883E80700704BA169704A04F14C
:1025EC001C09032908BF1A467B1EB3F5AE7F84BFB6
:1025FC0040F25D13A360236888BF6FF4AE7543F49B
:10260C005063236098BF00274B464FF000080092A0
:10261C0088BF7F193168019303AB53F8280002225D
:10262C00097800F0ABFA019B30B3B8F1010F5AD125
:10263C0062682AB908212268616042F40072226043
:10264C00226822F4A0622260A268511EA1609AB195
:10265C0032685D1C511C316012781A707368013B32
:10266C00002B736007DCD4F880313146584698470C
:10267C00002840F087802B4608F10108B8F1030FC1
:10268C00C8D162680AB90A22626062684549606909
:10269C00891A019300F0AAF8019B4FF000081D461F
:1026AC00A3682268002B3BD03168606991F800C0A8
:1026BC0010F80C00002833D0BCF1300F21D11005DC
:1026CC001FD508F1010817B10133013FA3607368EE
:1026DC00013B002B73601CDD336801333360A3684E
:1026EC00013BA360DCE7B8F1020FADD1226802F424
:1026FC00C061B1F5007FBFD1102142F480726160DE
:10270C00A1E722F4106222600B78013505F8013C38
:10271C00DDE7D4F880313146584698470028DED0A2
:10272C002368D9050CD54D4508D915F8011C6F1E29
:10273C00D4F87C313246584698473D464D4529D011
:10274C00226812F0100213D12A7063684946584669
:10275C00009EB047DAF8003021681A1DCAF8002034
:10276C0011F0200F1B6810D01860E3680133E36090
:10277C000020A5EB0905A84425694544256107B04F
:10278C00BDE8F08F4FF00008CAE7CA074CBF1880AD
:10279C001860EAE70120F2E7D02C00085129000864
:1027AC00692A0008872E000838B5054608461146E8
:1027BC000022054C22601A46FEF748FB431C02D14E
:1027CC00236803B12B6038BD4802002038B50023C4
:1027DC00054C05460846236000F046FA431C02D11E
:1027EC00236803B12B6038BD4802002070B50B780C
:1027FC00441E5E2B13BF4A1C8A1C4B78002108BF59
:10280C00012100F1FF0504F8011FAC42FBD113B903
:10281C00013A104670BD81F00104C454511C11F8EA
:10282C00015C4E1E2D2D0A4606D05D2DF1D00DB942
:10283C003246EEE72B46F0E70E785D2EFAD0B34227
:10284C00F8DC01339E42C454FBDC0231E7E72DE98E
:10285C00F0478046894692461E460F463D460898EC
:10286C0015F8014B00F066F92044437813F0080387
:10287C0032D12D2C32D101227C78BD1C002E5DD0A2
:10288C00102E09D1302C07D12B7803F0DF03582BF5
:10289C004FD110266C780235002A14BF4FF000413E
:1028AC006FF000410027B1FBF6FC384606FB1C1EFE
:1028BC00A4F13003092B17D81C46A64223DD7B1C40
:1028CC0007D084451CD301D1A64519DB012700FB99
:1028DC00064015F8014BEBE72F46BFE72B2C04BF46
:1028EC00BD1C7C781A46C9E7A4F14103192B01D809
:1028FC00373CE2E7A4F16103192B04D8573CDCE721
:10290C004FF0FF37E5E77B1C08D122230846C8F8B7
:10291C000030BAF1000F07D1BDE8F08702B1404298
:10292C00BAF1000FF8D00FB105F1FF39CAF80090D9
:10293C00F2E73024002EAFD10826ADE7302CA3D01F
:10294C000A26A9E737B5064C064D2468246A002CE4
:10295C0008BF2C460094FFF77AFF03B030BD00BFD0
:10296C000C000020700000202DE9F04780468946BD
:10297C0092461E460F463D46089815F8014B00F04E
:10298C00D9F82044437813F0080330D12D2C30D1E2
:10299C0001217C78BD1C002E5CD0102E09D1302C6E
:1029AC0007D12B7803F0DF03582B4ED110266C780F
:1029BC0002354FF0FF32B2FBF6F2002306FB02FCAD
:1029CC0018466FEA0C0CA4F13007092F17D83C46B7
:1029DC00A64223DD002B1EDB82421CD301D1A44571
:1029EC0019DB012300FB064015F8014BEBE72F46E2
:1029FC00C1E72B2C04BFBD1C7C781946CBE7A4F196
:102A0C004107192F01D8373CE2E7A4F16107192FD0
:102A1C0004D8573CDCE74FF0FF33E5E7002B09DA2D
:102A2C0022234FF0FF30C8F80030BAF1000F07D165
:102A3C00BDE8F08701B14042BAF1000FF8D00BB1FC
:102A4C0005F1FF39CAF80090F2E73024002EB0D11E
:102A5C000826AEE7302CA4D00A26AAE737B5064CD8
:102A6C00064D2468246A002C08BF2C460094FFF7FE
:102A7C007BFF03B030BD00BF0C00002070000020B5
:102A8C002DE9F0410C46496B04F1440399421BD1EA
:102A9C004FF48061FFF766F818B94FF0FF30BDE8CE
:102AAC00F0814FF48063A36394F84630606380F840
:102ABC00FF3394F8453000F2FD30437094F8443005
:102ACC00037020600020EAE7A66B77003A4600F01E
:102ADC0070F805460028E0D000EB060801463246A7
:102AEC00404600F059F8C4F80080C4E90D57E9E7F6
:102AFC0038B50023064C054608461146236000F005
:102B0C009BF8431C02D1236803B12B6038BD00BF76
:102B1C004802002038B50023054C054608462360C2
:102B2C0000F092F8431C02D1236803B12B6038BD2E
:102B3C0048020020D0F8EC0070470000044B054A16
:102B4C001B681B6A002B08BF1346D3F8EC007047B8
:102B5C000C0000207000002082B001B901A942B124
:102B6C004BB113780B601278101C18BF012002B007
:102B7C0070471046FBE76FF00100F8E710B5C9B2DB
:102B8C0002449042034601D1002303E01C7801303B
:102B9C008C42F6D1184610BD10B5431E0A44914222
:102BAC0000D110BD11F8014B03F8014FF7E7704746
:102BBC007047F8B5074614460E4621B9BDE8F840F3
:102BCC001146FEF7CFBF22B9FEF780FF25462846F7
:102BDC00F8BD00F021F8A0420FD221463846FEF78E
:102BEC00C1FF05460028F2D031462246FFF7D4FF3C
:102BFC0031463846FEF76AFFE9E73546E7E749B163
:102C0C00FF2A8BBF8A230A700360012088BF4FF014
:102C1C00FF3070470846704751F8043C181F002BD2
:102C2C00BCBF0B58C01870475822024B4FF0FF30F6
:102C3C001A607047480200205822024B4FF0FF30B8
:102C4C001A607047480200205822024B00201A607C
:102C5C00704700BF480200205822024B4FF0FF3053
:102C6C001A60704748020020044A05491368002B7B
:102C7C0008BF0B461844106018467047000200202D
:102C8C0050020020F8B500BFF8BC08BC9E46704747
:0C2C9C00F8B500BFF8BC08BC9E467047AD
:102CA80002030405060708090A0B0C0D0E0F101085
:102CB80000000000000000000102030406070809E4
:102CC8000000000001020304892E00088C2E000871
:102CD8008F2E00080D0A3E3E3E2057656C636F6DCF
:102CE8006520746F2053544D33322573203C3C3C8F
:102CF8000D0A000053797374656D20436C6F636B24
:102D0800203A20256C75204D487A00000D000000FF
:102D1800466C6173682053697A65203A20257520CE
:102D28004B62797465730000446576696365204970
:102D380044203A202530386C58000000556E6971DF
:102D48007565204944203A202530386C582D2530A7
:102D5800386C582D2530386C580000004F70746955
:102D68006F6E204279746573203A00003C2530323A
:102D7800583E20002530325820000000256400000D
:102D880046313033433820426C75652050696C6C8D
:102D980020426C696E6B203030310000EFBCB5EF1B
:102DA800BCA1EFBCB2EFBCB4E8A1A8E7A4BAE38326
:102DB80086E382B9E38388285554462D38290D00C7
:102DC800E382ABE382A6E383B3E38388203D202537
:102DD8002034640D0A0000001000002000000000EC
:102DE80000000000000000000000000000000000DB
:102DF80000000000000000000000000000000000CB
:102E080000000000000000000000000000000000BA
:102E180000000000000000000000000000000000AA
:102E2800000000000000000000000000000000009A
:102E3800000000000000000000000000686C4C006A
:102E4800232D302B20006566674546470030313218
:102E580033343536373839414243444546003031FA
:102E68003233343536373839616263646566004118
:102E78002D46612D66383930313233343536375D79
:102E8800002B2D003030007858004300504F534934
:102E980058002E0000202020202020202020282834
:102EA8002828282020202020202020202020202002
:102EB8002020202020881010101010101010101042
:102EC8001010101010040404040404040404041072
:102ED8001010101010104141414141410101010100
:102EE80001010101010101010101010101010101CA
:102EF80010101010101042424242424202020202D6
:102F08000202020202020202020202020202020299
:102F18001010101020000000000000000000000049
:102F28000000000000000000000000000000000099
:102F38000000000000000000000000000000000089
:102F48000000000000000000000000000000000079
:102F58000000000000000000000000000000000069
:102F68000000000000000000000000000000000059
:102F78000000000000000000000000000000000049
:102F88000000000000000000000000000000000039
:082F9800000000000000000031
:042FA00031010008F3
:042FA4000D01000813
:102FA800010000001000000000A24A0410000020E8
:102FB80000000000042E0008242E0008E42D00085C
:102FC80000000000000000000000000000000000F9
:102FD80000000000000000000000000000000000E9
:102FE80000000000000000000000000000000000D9
:102FF80000000000000000000000000000000000C9
:1030080000000000000000000000000000000000B8
:103018004300000000000000000000000000000065
:103028000000000000000000000000000000000098
:103038004300000000000000000000000000000045
:103048000000000000000000000000000000000078
:103058004300000000000000000000000000000025
:103068000000000000000000000000000000000058
:103078004300000000000000000000000000000005
:103088000000000000000000000000000000000038
:1030980043000000000000000000000000000000E5
:1030A8000000000000000000000000000000000018
:1030B80043000000000000000000000000000000C5
:1030C80000000000000000000000000000000000F8
:1030D80043000000000000000000000000000000A5
:1030E80000000000000000000000000000000000D8
:1030F8000B2C0008652B0008000000009C2E00081F
:103108009A2E00084D2E00084D2E00084D2E00085E
:103118004D2E00084D2E00084D2E00084D2E00089B
:103128004D2E00084D2E0008FFFFFFFFFFFFFFFF99
:10313800FFFFFFFFFFFF0000010041534349490023
:103148000000000000000000000000000000000077
:1031580000000000000000000000415343494900FE
:103168000000000000000000000000000000000057
:0C3178000000000000000000000000004B
:04000005080012B924
:00000001FF
